:100000000C9430010C9489050C94B0050C945801A3
:100010000C9458010C9458010C9458010C945801FC
:100020000C9458010C9458010C9458010C945801EC
:100030000C9458010C9458010C9458010C945801DC
:100040000C94D8050C9458010C94AD080C94DF085E
:100050000C9458010C9458010C9458010C945801BC
:100060000C9458010C9458010C9458010C945801AC
:100070000C9458010C9458010C9458010C9458019C
:100080000C9458010C9458010C9458010C9458018C
:100090000C9458010C9458010C9458010C9458017C
:1000A0000C9458010C9458010C9458010C9458016C
:1000B0000C94580100407A10F35A00A0724E1809AF
:1000C0000010A5D4E80000E87648170000E40B54BF
:1000D000020000CA9A3B000000E1F505000080968E
:1000E0009800000040420F000000A08601000000C0
:1000F000102700000000E80300000000640000007A
:1001000000000A00000000000100000000002C7642
:10011000D888DC674F0823DFC1DFAE59E1B1B7965D
:10012000E5E3E453C63AE651997696E8E6C28426BA
:10013000EB898C9B62ED407C6FFCEFBC9C9F40F296
:10014000BAA56FA5F490055A2AF75C936B6CF96712
:100150006DC11BFCE0E40D47FEF520E6B500D0EDD7
:10016000902E0300943577050080841E080000203F
:100170004E0A000000C80C333333330F986E1283DD
:100180001141EF8D2114893BE65516CFFEE6DB18B1
:10019000D1844B381BF77C1D901DA4BBE424203276
:1001A00084725E228100C9F124ECA1E53D27372E3F
:1001B000332E30002C200031323A33353A323600BB
:1001C0002C20004170722032302032303234005204
:1001D0004F4D20737472696E672C20436F6D706988
:1001E0006C6564206279207869616F6C6162613A44
:1001F00020000A0D0E09000302000004050800009B
:1002000000000000000000000000000000010204E7
:100210000810204080010204081020010204081088
:10022000204080400102040804040404040404047F
:100230000202020202020303030303030202030594
:1002400005050500000000250028002B002E0000F9
:10025000000000240027002A002D000084050F095B
:1002600011241FBECFEFD8E0DEBFCDBF12E0A0E06B
:10027000B1E0EEE5F3E202C005900D92A230B107C5
:10028000D9F722E0A2E0B2E001C01D92A93DB20779
:10029000E1F711E0C0E3D1E004C02197FE010E9424
:1002A000800CCE32D107C9F70E94D50B0C94AD114A
:1002B0000C940000CF92DF92EF92FF920F931F9366
:1002C0000E94220600910202109103022091040272
:1002D000309105026B017C01C01AD10AE20AF30ACF
:1002E00097018601083E13402105310550F16093C6
:1002F000020270930302809304029093050280919E
:10030000060290910702892BB9F481E090E0909366
:100310000702809306026091060285E00E9446076C
:100320006AE071E088E392E01F910F91FF90EF90F7
:10033000DF90CF900C94E109109207021092060210
:10034000EACF1F910F91FF90EF90DF90CF9008952B
:100350006DE371E088E392E00E94E1096FEC71E0E7
:1003600088E392E00E94780963EC71E088E392E010
:100370000E94780960EC71E088E392E00E947809BD
:1003800067EB71E088E392E00E94780964EB71E02A
:1003900088E392E00E9478096EEA71E088E392E0D7
:1003A0000C94BD09CF93DF93CDB7DEB72C970FB672
:1003B000F894DEBF0FBECDBF26E040E855E260E016
:1003C00070E088E392E00E945B080E94A80122E0AE
:1003D00030E040E150E06AE070E08DE092E00E94A1
:1003E000E80240EC5CED63E077E38DE092E00E9490
:1003F000A004892B39F46CE771E088E392E00E9455
:10040000E109FFCF22E040E050EC66E674E4CE0163
:1004100007960E944B0B66EA71E0CE0101960E949E
:100420001D0BBE01695F7F4FCE0101960E94A70B95
:1004300067EB71E00E94BA0BBC0188E392E00E9476
:10044000CF09CE0101960E94AB0ACE0107960E9409
:10045000AB0A2C960FB6F894DEBF0FBECDBFDF916E
:10046000CF91089570E060E08DE092E00E942D054C
:10047000892B39F16BEB71E088E392E00E94AA09C5
:100480008DE092E00E946703892B51F08DE092E0AD
:100490000E947503682F88E392E00E94B209F0CFB2
:1004A0006DEC71E088E392E00E94AA098DE092E091
:1004B0000E9440034AE050E0BC0188E392E00E94C1
:1004C000930A0C945A01CF93CFB7F89480910B0202
:1004D000811127C0E2E3F2E08491E7E1F2E0949138
:1004E000E82FF0E0EE0FFF1FE15BFD4FA591B49107
:1004F000EC91E92321F461E08AE00E94460761E083
:100500008AE00E940A078CB580618CBD8CB580643E
:100510008CBD61E08DE00E940A0761E08BE00E94E3
:100520000A0780910B028F5F80930B02CFBFCF91A0
:10053000089590E080E00895CF93DF931F92CDB7A8
:10054000DEB76983DC01ED91FC910280F381E02D3F
:1005500041E050E0BE016F5F7F4F09950F90DF9142
:10056000CF9108950895FC011382128288EE93E0E2
:10057000A0E0B0E084839583A683B7838EED91E0FD
:100580009183808380E5848781E085878CE092E099
:10059000978786878AE090E0918B808B89E090E056
:1005A000938B828B82E090E0958B848B168A178ADE
:1005B000108E118E138E128E158E148E178E168E2F
:1005C00011A210A240E050E0BA01CF010C94A50A9C
:1005D000FC01718B608B538B428B358B248B089580
:1005E0000F931F93CF93DF93EC01062F142F60E03E
:1005F00088890E9446073C852D8580910A028823C0
:1006000081F09FB7F89480910A02813081F58DB313
:10061000809308024DB380910902809584238DBB9D
:100620009FBF3CBD2DBD0EBD00000DB407FEFDCF2C
:100630008EB51EBD00000DB407FEFDCF1EB5809126
:100640000A02882351F09FB7F89420910A02809102
:100650000802213079F48DBB9FBF61E088890E9438
:100660004607812FDF91CF911F910F9108959093AD
:100670000802D7CF8FBFF1CF6F7740E00C94F00224
:100680000F931F93CF93DF938C016AE10E943C0389
:10069000C82FD0E0F80166897789808D918D0E94FE
:1006A000EB0B2AEE36E54AEF5DE40E94E40B87FD92
:1006B0000BC08DE990E09E01281B390BC901DF9129
:1006C000CF911F910F91089584EA90E0F4CFCF93DA
:1006D000DF93EC0163E10E943C0390E02A8D3B8DA7
:1006E000821B930BDF91CF910895CF93DF93EC01A1
:1006F000E881F9810084F185E02D0995892B69F065
:100700008A8D9B8D01969B8F8A8F60E0CE010E941F
:100710003C0390E0DF91CF9108958FEF9FEFFACFE8
:10072000AF92BF92CF92DF92FF920F931F93CF931E
:10073000DF936C015B01EA0162E20E943C03F82E48
:1007400090E09C012C0F3D1F2F3F310529F020F038
:10075000CFEFD0E0C81BD90B8501AC0EBD1E0A152A
:100760001B0541F0F80141918F0160E8C6010E942C
:10077000F002F5CF4C2F4F0D62EAC6010E94F00245
:10078000CE01DF91CF911F910F91FF90DF90CF901D
:10079000BF90AF9008950F931F93CF93DF93EC0119
:1007A000E881F9810084F185E02D0995892BB1F06C
:1007B0006DE0CE010E943C03082F60E0CE010E9454
:1007C0003C03182F402F6DE8CE010E94F002812FCC
:1007D00090E0DF91CF911F910F9108958FEF9FEFE0
:1007E000F8CF41E861E80C94F00240E861E80C942D
:1007F000F0029F92AF92BF92CF92DF92EF92FF9260
:100800000F931F93CF93DF93EC01DB01CA018E8B13
:100810009F8BA88FB98F6A017B01FF0CCC08DC2C61
:1008200076019A01AB016C2D7C2D8C2D9C2D03E162
:100830000E94E50CA12CE8E4BE2EF8EECF2EDD24BC
:10084000D394E12CF12C00E010E00E94880CF22EF1
:10085000932E5A01162FC72ED82EE92E00E10E94A2
:10086000000D422F66E8CE010E94F0022F2D392D97
:10087000A501612F7C2D8D2D9E2D08E00E94000D7D
:10088000422F67E8CE010E94F0024F2D68E8CE01AA
:10089000DF91CF911F910F91FF90EF90DF90CF905C
:1008A000BF90AF909F900C94F0029C01693778F450
:1008B000462F4D52550BCA0165E070E00E944A0C6C
:1008C0006F71462F40626BE8C9010C94F002613FE2
:1008D00030F4862F90E04E966AE070E0EFCF6BE147
:1008E000EFCF0F931F93CF93DF938C01EB01623116
:1008F0007105D4F06531710514F0C4E1D0E023979F
:1009000047E86DECC8010E94F0026CE8C8010E9443
:1009100055044C2F4250406869E8C801DF91CF91DF
:100920001F910F910C94F0026230710514F4C2E033
:10093000D0E044E86DECC8010E94F00264E6E6CF26
:10094000CF92DF92EF92FF92CF93DF93EC016A0197
:100950007B0161E088890E940A0761E088890E9422
:1009600046078A899B898F3F9807B9F061E00E940A
:100970000A0760E08A890E9446076AE070E080E02A
:1009800090E00E94530661E08A890E9446076AE06F
:1009900070E080E090E00E9453060E94630262E4EF
:1009A000CE010E943C03823191F5CE010E94F503F5
:1009B000B701A601CE010E94F90340E06EE8CE0126
:1009C0000E94F00240E06FE8CE010E94F0026CE06D
:1009D000CE010E943C03482F43606CE8CE010E9488
:1009E000F00244E066EACE010E94F00261E170E0AC
:1009F000CE010E947104CE010E94F10381E090E0DB
:100A0000DF91CF91FF90EF90DF90CF90089590E02D
:100A100080E0F6CFCF93DF93EC011D8E1C8E6DE14D
:100A20000E943C03482F4E7F6DE9CE01DF91CF91AC
:100A30000C94F002CF93DF93EC0181E090E09D8F66
:100A40008C8F6DE1CE010E943C03482F41606DE91F
:100A5000CE01DF91CF910C94F002EF92FF920F93B1
:100A60001F93CF93DF93EC017B0162E10E943C0373
:100A7000182FCE011E141F048CF50E941A054E2D4E
:100A800062EACE010E94F002412F62E9CE010E948B
:100A9000F00216FF26C015FD24C01B8E1A8E8C8D09
:100AA0009D8D62E2892B09F463E1CE010E943C0333
:100AB000082F10E060E1CE010E943C03482F6DE852
:100AC000CE010E94F002CE010E94F103C801DF9125
:100AD000CF911F910F91FF90EF9008950E940A050A
:100AE000D3CF61E0CE010E943C03863851F040E054
:100AF0006DE8CE010E94F00246E861E8CE010E9456
:100B0000F00210E000E0E2CF8DE092E00C94B3023E
:100B100008951F920F920FB60F9211242F933F93B7
:100B20004F935F936F937F938F939F93AF93BF93F5
:100B3000EF93FF93E0910601F09107010995FF9172
:100B4000EF91BF91AF919F918F917F916F915F9145
:100B50004F913F912F910F900FBE0F901F901895BE
:100B60001F920F920FB60F9211242F933F934F9322
:100B70005F936F937F938F939F93AF93BF93EF9305
:100B8000FF93E0910801F09109010995FF91EF9120
:100B9000BF91AF919F918F917F916F915F914F9195
:100BA0003F912F910F900FBE0F901F9018950895B1
:100BB0001F920F920FB60F9211242F933F938F9392
:100BC0009F93AF93BF938091340290913502A0918F
:100BD0003602B09137023091330220E3230F2D37D4
:100BE00068F123EB230F4196A11DB11D2093330221
:100BF0008093340290933502A0933602B09337026B
:100C000080912F0290913002A0913102B091320276
:100C10000196A11DB11D80932F0290933002A093E5
:100C20003102B0933202BF91AF919F918F913F916A
:100C30002F910F900FBE0F901F9018954096A11DF9
:100C4000B11DD4CF2FB7F894609134027091350262
:100C500080913602909137022FBF08953FB7F894E4
:100C600080912F0290913002A0913102B091320216
:100C700026B5A89B05C02F3F19F00196A11DB11DF7
:100C80003FBFBA2FA92F982F8827BC01CD01620F33
:100C9000711D811D911D46E0660F771F881F991FEA
:100CA0004A95D1F708958F929F92AF92BF92CF92BB
:100CB000DF92EF92FF926B017C010E942E064B01A6
:100CC0005C01C114D104E104F104E9F00E94D705EC
:100CD0000E942E06681979098A099B09683E7340AB
:100CE0008105910570F321E0C21AD108E108F108ED
:100CF00088EE880E83E0981EA11CB11CC114D1049B
:100D0000E104F10429F7FF90EF90DF90CF90BF90BE
:100D1000AF909F908F900895789484B5836084BD40
:100D200085B5836085BDEEE6F0E0808181608083DB
:100D300082E080938100E0E8F0E080818160808340
:100D4000E1EBF0E0808184608083E0EBF0E0808183
:100D500081608083E1E9F0E0808183608083E0E965
:100D6000F0E0808181608083E1EAF0E0808183604F
:100D70008083E0EAF0E080818160808383E8809373
:100D80007A001092C100089582508D3008F03EC064
:100D9000E82FF0E0E253F94F0C94800C03070707AB
:100DA000DB06E10606070607E506EB06EF06F50695
:100DB0000607F906FF06809180008F7780938000F8
:100DC0000895809180008F7DF9CF8091B0008F775A
:100DD0008093B00008958091B0008F7DF9CF80910D
:100DE00090008F77809390000895809190008F7D80
:100DF000F9CF8091A0008F778093A0000895809113
:100E0000A0008F7DF9CF84B58F7784BD089584B518
:100E10008F7DFBCFCF93DF9390E0FC01E35FFD4F2D
:100E20002491885D9D4FFC0184918823C9F090E056
:100E3000880F991FFC01E15BFD4FA591B491FC0166
:100E4000ED5BFD4FC591D49161110DC09FB7F89432
:100E50008C91209582238C938881282328839FBF9F
:100E6000DF91CF910895623051F49FB7F8943C918F
:100E7000822F809583238C93E8812E2BEFCF8FB721
:100E8000F894EC912E2B2C938FBFEACF1F93CF9326
:100E9000DF93282F30E0F901EE50FE4F8491F901E5
:100EA000E35FFD4FD491F901E85DFD4FC491CC2380
:100EB000A9F0162F81110E94C406EC2FF0E0EE0F6E
:100EC000FF1FED5BFD4FA591B4918FB7F894EC91A6
:100ED000111108C0D095DE23DC938FBFDF91CF9135
:100EE0001F910895DE2BF8CFFC01918D228D892F63
:100EF00090E0805C9F4F821B91098F739927089522
:100F0000FC01918D828D981731F0828DE80FF11DD3
:100F1000858D90E008958FEF9FEF0895FC01918DEE
:100F2000828D981761F0A28DAE0FBF2FB11D5D9617
:100F30008C91928D9F5F9F73928F90E008958FEFB9
:100F40009FEF0895FC01538D448D252F30E0842FB1
:100F500090E0821B930B541710F0CF9608950197E1
:100F6000089585E099E0892B49F080E090E0892B95
:100F700029F00E94050981110E94000080E090E0A4
:100F8000892B49F080E090E0892B29F00E94000035
:100F900081110C9400000895FC01A48DA80FB92FB5
:100FA000B11DA35ABF4F2C91848D90E001968F7391
:100FB0009927848FA689B7892C93A089B1898C91B0
:100FC000837080648C93938D848D981306C00288FF
:100FD000F389E02D80818F7D80830895CF93DF9307
:100FE000EC01888D8823B9F0AA89BB89E889F98941
:100FF0008C9185FD03C0808186FD0DC00FB607FC76
:10100000F7CF8C9185FFF2CF808185FFEDCFCE01A8
:101010000E94CC07E9CFDF91CF910895EF92FF9224
:101020000F931F93CF93DF93EC0181E0888F9B8D0B
:101030008C8D98131AC0E889F989808185FF15C0C5
:101040009FB7F894EE89FF896083E889F9898081E8
:101050008370806480839FBF81E090E0DF91CF91B7
:101060001F910F91FF90EF900895F62E0B8D10E0D9
:101070000F5F1F4F0F731127E02E8C8D8E110CC048
:101080000FB607FCFACFE889F989808185FFF5CF93
:10109000CE010E94CC07F1CFEB8DEC0FFD2FF11D9F
:1010A000E35AFF4FF0829FB7F8940B8FEA89FB89D0
:1010B00080818062CFCFCF92DF92EF92FF921F9319
:1010C000CF93DF93EC016A017B01122F60E970ED91
:1010D00083E090E0A70196010E945E0C2150310947
:1010E000410951095695479537952795E889F9891A
:1010F00082E08083211580E1380798F0E889F9893A
:10110000108268E478EE81E090E0A70196010E94E9
:101110005E0C215031094109510956954795379583
:101120002795EC85FD853083EE85FF852083188E1D
:10113000EC89FD891083EA89FB8980818869808335
:10114000EA89FB8980818F7D8083DF91CF911F9118
:10115000FF90EF90DF90CF9008951F920F920FB6FF
:101160000F9211242F938F939F93EF93FF93E0910E
:101170004802F09149028081E0914E02F0914F02C5
:1011800082FD1BC09081809151028F5F8F732091EF
:101190005202821741F0E0915102F0E0E85CFD4F0D
:1011A000958F80935102FF91EF919F918F912F9195
:1011B0000F900FBE0F901F9018958081F4CF1F9253
:1011C0000F920FB60F9211242F933F934F935F937B
:1011D0006F937F938F939F93AF93BF93EF93FF93FF
:1011E00088E392E00E94CC07FF91EF91BF91AF910D
:1011F0009F918F917F916F915F914F913F912F912F
:101200000F900FBE0F901F90189588E392E00E94F8
:10121000740721E0892B09F420E0822F0895E8E388
:10122000F2E01382128288EE93E0A0E0B0E08483C3
:101230009583A683B78380EF91E09183808385ECCB
:1012400090E09587848784EC90E09787868780EC90
:1012500090E0918B808B81EC90E0938B828B82EC81
:1012600090E0958B848B86EC90E0978B868B118E2B
:10127000128E138E148E0895AF92BF92CF92DF928A
:10128000EF92FF920F931F93CF93DF936C017B013B
:101290008B01040F151FEB015E01AE18BF08C017CC
:1012A000D10759F06991D601ED91FC910190F0813F
:1012B000E02DC6010995892B79F7C501DF91CF9102
:1012C0001F910F91FF90EF90DF90CF90BF90AF9064
:1012D0000895FB0101900020E9F73197AF01461B0B
:1012E000570BDC01ED91FC910280F381E02D099414
:1012F000EF92FF920F931F93CF93DF938C017B01AB
:10130000D0E0C0E0F701EC0FFD1F6491662361F0AF
:10131000D801ED91FC910190F081E02DC801099573
:10132000892B11F02196EECFCE01DF91CF911F9145
:101330000F91FF90EF900895DB0114964D915C9111
:1013400015976D917C91DC01ED91FC910280F38108
:10135000E02D09946115710511F00C94690990E074
:1013600080E00895DC01ED91FC910190F081E02D89
:1013700009946EEF71E00C9469090F931F93CF935A
:10138000DF93EC010E9478098C01CE010E94B9091B
:10139000800F911FDF91CF911F910F9108950F93AF
:1013A0001F93CF93DF93EC010E949C098C01CE0127
:1013B0000E94B909800F911FDF91CF911F910F916A
:1013C00008950F931F93CF93DF938C01D0E0C0E07B
:1013D0006115710519F00E946909EC01C8010E94AC
:1013E000B9098C0F9D1FDF91CF911F910F91089527
:1013F0008F929F92AF92BF92EF92FF920F931F93A3
:10140000CF93DF93CDB7DEB7A1970FB6F894DEBFC9
:101410000FBECDBF7C01FA01CB0119A2223008F426
:101420002AE08E010F5D1F4F822E912CB12CA12C32
:10143000BF01A50194010E945E0CF901CA016A3046
:101440000CF5605DD8016E938D01232B242B252B89
:1014500079F790E080E0109721F0BD01C7010E946C
:101460006909A1960FB6F894DEBF0FBECDBFDF911C
:10147000CF911F910F91FF90EF90BF90AF909F90F1
:101480008F900895695CDECFCF92DF92EF92FF924A
:101490000F931F93CF93DF932115310581F4DC0166
:1014A000ED91FC910190F081E02D642FDF91CF91BF
:1014B0001F910F91FF90EF90DF90CF9009942A3009
:1014C000310501F52AE077FF1DC06A017B01EC01BF
:1014D0006DE20E94B2098C0144275527BA014C19CC
:1014E0005D096E097F092AE0CE010E94F809800F8C
:1014F000911FDF91CF911F910F91FF90EF90DF909F
:10150000CF900895DF91CF911F910F91FF90EF90B1
:10151000DF90CF900C94F8099A01AB01770F660B1E
:10152000770B0C94440A0F931F93CF93DF93EC0136
:101530000E948C0A8C01CE010E94B909800F911F74
:10154000DF91CF911F910F910895FC014483558342
:10155000668377830895FC0180819181009711F063
:101560000C94E90D0895CF93DF93EC018881998164
:10157000009711F00E94E90D198218821D821C82C9
:101580001B821A82DF91CF9108950F931F93CF93FF
:10159000DF93EC018B016F5F7F4F888199810E94FF
:1015A000720E009751F0998388831B830A8381E030
:1015B000DF91CF911F910F91089580E0F9CFCF93E4
:1015C000DF93EC0188819981892B49F08A819B8185
:1015D0008617970720F081E0DF91CF910895CE0123
:1015E0000E94C50A8823C1F38C819D81892B99F7BC
:1015F000E881F9811082EFCFEF92FF920F931F9352
:10160000CF93DF93EC017B018A01BA010E94DF0ACC
:1016100081110BC0CE010E94B30ACE01DF91CF91A0
:101620001F910F91FF90EF9008951D830C83B701D8
:10163000888199810E94380FF0CFFC0111821082BD
:1016400013821282158214826115710551F0FB011B
:1016500001900020E9F73197AF01461B570B0C941E
:10166000FC0A0895FB0101900020E9F73197AF01D2
:10167000461B570B0C94FC0ACF93DF93EC016115CA
:10168000710531F00E94320BCE01DF91CF910895A8
:101690000E94B30AF9CFEF92FF920F931F93CF935B
:1016A000DF93CDB7DEB7A1970FB6F894DEBF0FBEBC
:1016B000CDBF7C01CB01BA01F701118210821382E8
:1016C00012821582148242E0420F8E010F5F1F4F7B
:1016D0000E942F0DBC01C7010E943C0BA1960FB6C2
:1016E000F894DEBF0FBECDBFDF91CF911F910F9158
:1016F000FF90EF900895EF92FF920F931F93CF9377
:10170000DF936115710541F480E0DF91CF911F9166
:101710000F91FF90EF90089541155105B1F07B01B5
:10172000EC010C811D81040F151FB8010E94DF0A16
:10173000882351F3288139818C819D81B701820FE3
:10174000931F0E94380F1D830C8381E0DECFCF935F
:10175000DF93EC01FB0144815581608171810E941E
:101760007B0B811103C0CE010E94B30ACE01DF9131
:10177000CF910895CF93DF93EC016115710539F492
:10178000CE010E94B30ACE01DF91CF910895FB01F3
:1017900001900020E9F73197AF01461B570B0E94DB
:1017A0007B0B882369F3EFCF08950E948C060E947B
:1017B000D40B0E94D201C1EBD7E00E9432022097E5
:1017C000E1F30E94B107F9CF0E94260C08F481E0F2
:1017D0000895E89409C097FB3EF490958095709524
:1017E00061957F4F8F4F9F4F9923A9F0F92F96E96D
:1017F000BB279395F695879577956795B795F111E2
:10180000F8CFFAF4BB0F11F460FF1BC06F5F7F4F7E
:101810008F4F9F4F16C0882311F096E911C0772390
:1018200021F09EE8872F762F05C0662371F096E899
:10183000862F70E060E02AF09A95660F771F881F68
:10184000DAF7880F9695879597F90895990F00080C
:10185000550FAA0BE0E8FEEF16161706E807F90782
:10186000C0F012161306E407F50798F0621B730B1D
:10187000840B950B39F40A2661F0232B242B252B9E
:1018800021F408950A2609F4A140A6958FEF811D41
:10189000811D089597FB072E16F4009407D077FD5D
:1018A00009D00E941B0D07FC05D03EF49095819550
:1018B0009F4F0895709561957F4F0895A1E21A2E6C
:1018C000AA1BBB1BFD010DC0AA1FBB1FEE1FFF1FE4
:1018D000A217B307E407F50720F0A21BB30BE40B34
:1018E000F50B661F771F881F991F1A9469F760957B
:1018F0007095809590959B01AC01BD01CF01089535
:10190000EE0FFF1F0590F491E02D0994689401C03B
:10191000E8948F929F92CF93DF930E94940CDF9173
:10192000CF919F908F90089588249924F401E40129
:10193000B0E49F93AA279A158B049C04ED05FE053D
:10194000CF05D007A10798F4AD2FDC2FCF2FFE2FA6
:10195000E92D982C892E982F872F762F652F542FBD
:10196000432F322F2227B85031F7BF9127C01B2EAB
:10197000BF91BB27220F331F441F551F661F771FC0
:10198000881F991F881C991CEE1FFF1FCC1FDD1F8D
:10199000AA1FBB1F8A149B04EC05FD05CE05DF05BD
:1019A000A007B10748F08A189B08EC09FD09CE0989
:1019B000DF09A00BB10B21601A94E1F62EF494011B
:1019C000AF01BE01CD01000C0895002E083090F04B
:1019D000982F872F762F652F542F432F322F2227B2
:1019E0000850F4CF220F331F441F551F661F771F67
:1019F000881F991F0A95B2F7002D089597FD10943E
:101A0000002E083098F00850232F342F452F562FE2
:101A1000672F782F892F912DF4CF1594979587955F
:101A20007795679557954795379527950A95AAF71E
:101A30001124002D0895AA1BBB1B51E107C0AA1F4A
:101A4000BB1FA617B70710F0A61BB70B881F991F5F
:101A50005A95A9F780959095BC01CD010895EF9214
:101A60000F931F93CF93DF93E80134E047FD34E1F8
:101A7000042E000C550B57FF03C051954195510999
:101A8000E32E022F242FAE010E943F0FCE01DF91E3
:101A9000CF911F910F91EF9008950F931F93CF93C4
:101AA000DF938230910510F482E090E0E091D7025C
:101AB000F091D80230E020E0B0E0A0E0309799F457
:101AC0002115310509F44AC0281B390B2430310592
:101AD000D8F58A819B816115710589F1FB0193839A
:101AE0008283FE0111C04081518102811381481718
:101AF0005907E0F04817590799F4109761F01296CA
:101B00000C93129713961C933296CF01DF91CF91CD
:101B10001F910F9108950093D7021093D802F4CF2C
:101B20002115310551F04217530738F0A901DB01A7
:101B30009A01BD01DF01F801C1CFEF01F9CF909308
:101B4000D8028093D702CDCFFE01E20FF31F81931D
:101B500091932250310939832883D7CF2091D50220
:101B60003091D602232B41F42091020130910301E0
:101B70003093D6022093D5022091000130910101CB
:101B80002115310541F42DB73EB740910401509124
:101B90000501241B350BE091D502F091D602E21726
:101BA000F307A0F42E1B3F0B2817390778F0AC0180
:101BB0004E5F5F4F2417350748F04E0F5F1F50935D
:101BC000D6024093D502819391939FCFF0E0E0E05D
:101BD0009CCFCF93DF930097E9F0FC0132971382FB
:101BE0001282A091D702B091D802ED0130E020E03E
:101BF0001097A1F420813181820F931F2091D5028B
:101C00003091D6022817390709F061C0F093D60247
:101C1000E093D502DF91CF910895EA01CE17DF0757
:101C2000E8F54A815B819E0141155105B1F7E90153
:101C3000FB83EA8349915991C40FD51FEC17FD0727
:101C400061F4808191810296840F951FE901998347
:101C50008883828193819B838A83F0E0E0E01296FF
:101C60008D919C9113970097B9F52D913C91119707
:101C7000CD010296820F931F2091D5023091D6029A
:101C80002817390739F6309751F51092D80210927B
:101C9000D702B093D602A093D502BCCFD383C28320
:101CA00040815181840F951FC817D90761F44E5F99
:101CB0005F4F88819981480F591F518340838A81E2
:101CC0009B81938382832115310509F0B0CFF09376
:101CD000D802E093D7029ECFFD01DC01C0CF138272
:101CE0001282D7CFB0E0A0E0E8E7FEE00C947811D4
:101CF0008C01009751F4CB010E944D0D8C01C8015D
:101D0000CDB7DEB7E0E10C949411FC01E60FF71FAC
:101D10009C0122503109E217F30708F49DC0D90154
:101D2000CD91DC911197C617D70798F0C530D10532
:101D300030F3CE0104978617970708F3C61BD70B1D
:101D40002297C193D1936D937C93CF010E94E90DAB
:101D5000D6CF5B01AC1ABD0A4C018C0E9D1EA09122
:101D6000D702B091D802512C412CF12CE12C1097C4
:101D700031F58091D5029091D6028815990509F028
:101D80005CC04616570608F058C08091000190913B
:101D90000101009741F48DB79EB740910401509125
:101DA0000501841B950BE817F90708F055C0F0935F
:101DB000D602E093D502F90171836083A0CF8D91A3
:101DC0009C91119712966C90129713967C90139792
:101DD000A815B90559F56C0142E0C40ED11CCA140E
:101DE000DB0420F1AC014A195B09DA011296159760
:101DF00080F06282738251834083D9016D937C931A
:101E0000E114F10471F0D7011396FC93EE9312974D
:101E100076CF22968C0F9D1FF90191838083F30169
:101E2000EFCFF093D802E093D70269CF4816590656
:101E300008F42C017D01D3019ACFCB010E944D0DF6
:101E40007C01009749F0AE01B8010E942F0FC80134
:101E50000E94E90D870153CF10E000E050CFFB0155
:101E6000DC0102C001900D9241505040D8F7089516
:101E7000FB01DC0101900D920020E1F70895A9E03B
:101E8000B0E0E5E4FFE00C947C116A01F22EB02E84
:101E9000102FFBE3AF2EA01608F41BE31F5F012FEA
:101EA00027E0AE014F5F5F4F0E949E10BC01898109
:101EB000982F9970913009F43FC09BE2E1FC04C077
:101EC0009E2D9170E0FC3AC05E2D5071E82FE870B5
:101ED00083FF46C084E0911101C083E0EF2DE81B31
:101EE0008F1508F0E0E0D6018E2F20E2552351F146
:101EF000992329F0D6019C93C60101966C019601A5
:101F00002D5F3F4FE2FE24C08EE4D6018C9391E416
:101F100011969C93119712968C93D9018E2F90E273
:101F200081111BC0E20FF32FF11D10828EEF9FEF86
:101F30002996ECE00C9498119DE2C6CF90E2C4CFB4
:101F40002D9381508111FCCFCE0ED11CE0E0D0CF7B
:101F50008EE6D6018C9391E6DBCF9D938150E0CF46
:101F6000482F447082FF3DC084E0911101C083E09E
:101F70008F1510F4EF2DE81BD6018E2F20E255238C
:101F800009F1992329F0D6019C93C60101966C01B1
:101F900096012D5F3F4FE2FE1BC089E4D6018C9372
:101FA0008EE411968C93119786E412968C93D90146
:101FB0008E2F90E2882309F4B5CF9D938150FACFFC
:101FC0002D9381508111FCCFCE0ED11CE0E0D9CFF2
:101FD00089E6D6018C938EE611968C93119786E64E
:101FE000E4CF9B0177FF02C030E020E0A1E0B0E049
:101FF000911102C0B0E0A0E0F9013196AE0FBF1F11
:102000008B2C912CBB2009F461C05401EFEFAE1A68
:10201000BE0AAA0DBB1DFA161B0619F014F04F2DAF
:102020004A1B511188C0E3FC59C07601A42FB0E2CD
:10203000A1114FC0C40ED11C992309F45BC040E02C
:10204000D6011196F60190836D01552309F448C01D
:10205000012F060F9A81582F507184FF03C09133CE
:1020600009F4015010160CF047C0093008F008E0E0
:10207000EEE2FE2E5B01A01AB108850191948194D5
:1020800091082F3F320729F4D601FC92F6013196D0
:102090006F016217730794F1021713077CF5DB01D8
:1020A000A21BB30BAA24A394B12CAC0EBD1EAA0D87
:1020B000BB1D11968C9121503109D601119628151E
:1020C0003905F4F0F60180836D01DBCFB12CA12C32
:1020D000A0CFF701B1937F01A150AACF9111B0CF4A
:1020E000D601942F50E302C05D9391509111FCCF23
:1020F000C40ED11C40E0ACCF01E0BACF80E3DBCF0F
:102100006217730731F4963388F4953311F455232D
:1021100069F0F6018083FD01842F90E2811108C0EF
:10212000A40FB11D1C9290E080E002CF81E3F1CFBB
:1021300091938150F3CF911183CF8ACF283008F04B
:1021400027E03327DA01990F311D87FD9160009652
:102150006105710539F432602E5F3D9330E32A95B5
:10216000E1F708959F3F30F080387105610509F06F
:102170003C5F3C5F3D93913008F08068911DDF9398
:10218000CF931F930F93FF92EF92192F987F9695FD
:10219000E92F96959695E90FFF27E25FFE4F992765
:1021A0003327EE24FF24A701E70105900894079444
:1021B00028F4360FE71EF81E491F511D660F771FC2
:1021C000881F991F0694A1F70590079428F4E70E3D
:1021D000F81E491F561FC11D770F881F991F661FC4
:1021E0000694A1F70590079428F4F80E491F561F8E
:1021F000C71FD11D880F991F661F771F0694A1F76F
:102200000590079420F4490F561FC71FD81F990F38
:10221000661F771F881F0694A9F784911095177081
:1022200041F0D695C79557954795F794E7941A9539
:10223000C1F7E4EBF0E06894159015913591659144
:10224000959105907FE27395E118F10A430B560BC7
:10225000C90BD009C0F7E10CF11E431F561FC91F5F
:10226000D01D7EF4703311F48A95E6CFE8940150C6
:1022700030F0080F0AF40027021708F4202F2395E6
:10228000022F7A3328F079E37D932A95E9F710C07D
:102290007D932A9589F606949795679537951795B6
:1022A0001794E118F10A430B560BC90BD00998F0AB
:1022B00023957E9173957A3308F070E37C93201315
:1022C000B8F77E9170617D9330F0839571E37D93D3
:1022D00070E32A95E1F71124EF90FF900F911F9181
:1022E000CF91DF91992787FD909508952F923F9286
:1022F0004F925F926F927F928F929F92AF92BF9216
:10230000CF92DF92EF92FF920F931F93CF93DF93C1
:10231000CDB7DEB7CA1BDB0B0FB6F894DEBF0FBE1E
:10232000CDBF09942A88398848885F846E847D846B
:102330008C849B84AA84B984C884DF80EE80FD806D
:102340000C811B81AA81B981CE0FD11D0FB6F894E3
:0E235000DEBF0FBECDBFED010895F894FFCFA4
:10235E000000D90280008805000068692078696154
:10236E006F6C6162612C2074686973204C45442047
:10237E00626C696E6B696E672F746F67676C696EDE
:10238E006720706572207365636F6E640052414DF5
:10239E0020737472696E672C20436F6D70696C6563
:1023AE0064206279207869616F6C6162613A2041C4
:1023BE00707220323020323032342C2031323A33A7
:1023CE00353A32362C20372E332E30004C6F526178
:1023DE0020696E6974206661696C65642E2043689D
:1023EE0065636B20796F757220636F6E6E656374B3
:1023FE00696F6E732E004C6F526120526563656972
:10240E00766572204020004D487A005265636569FA
:10241E00766564207061636B6574202700272077D2
:10242E0069746820525353492000000000009C023A
:10243E0090039902B20267037503CB0300000000FC
:10244E000E083C09A207EE0774078E0780070D0AD7
:02245E0000007C
:00000001FF
